{
  "contractName": "AssetFactory",
  "abi": [
    {
      "constant": false,
      "inputs": [
        {
          "name": "_name",
          "type": "string"
        },
        {
          "name": "_totalSupply",
          "type": "uint256"
        },
        {
          "name": "_description",
          "type": "string"
        }
      ],
      "name": "registerSimpleAssetType",
      "outputs": [
        {
          "name": "",
          "type": "address"
        }
      ],
      "payable": false,
      "stateMutability": "nonpayable",
      "type": "function"
    },
    {
      "constant": true,
      "inputs": [],
      "name": "hello",
      "outputs": [
        {
          "name": "",
          "type": "string"
        }
      ],
      "payable": false,
      "stateMutability": "pure",
      "type": "function"
    }
  ],
  "bytecode": "0x6060604052341561000f57600080fd5b61085c8061001e6000396000f30060606040526004361061004c576000357c0100000000000000000000000000000000000000000000000000000000900463ffffffff168063044e0fe61461005157806319ff1d211461013a575b600080fd5b341561005c57600080fd5b6100f8600480803590602001908201803590602001908080601f0160208091040260200160405190810160405280939291908181526020018383808284378201915050505050509190803590602001909190803590602001908201803590602001908080601f016020809104026020016040519081016040528093929190818152602001838380828437820191505050505050919050506101c8565b604051808273ffffffffffffffffffffffffffffffffffffffff1673ffffffffffffffffffffffffffffffffffffffff16815260200191505060405180910390f35b341561014557600080fd5b61014d61033b565b6040518080602001828103825283818151815260200191508051906020019080838360005b8381101561018d578082015181840152602081019050610172565b50505050905090810190601f1680156101ba5780820380516001836020036101000a031916815260200191505b509250505060405180910390f35b6000808484846101d661037e565b808060200184815260200180602001838103835286818151815260200191508051906020019080838360005b8381101561021d578082015181840152602081019050610202565b50505050905090810190601f16801561024a5780820380516001836020036101000a031916815260200191505b50838103825284818151815260200191508051906020019080838360005b83811015610283578082015181840152602081019050610268565b50505050905090810190601f1680156102b05780820380516001836020036101000a031916815260200191505b5095505050505050604051809103906000f08015156102ce57600080fd5b9050600080548060010182816102e4919061038e565b9160005260206000209001600083909190916101000a81548173ffffffffffffffffffffffffffffffffffffffff021916908373ffffffffffffffffffffffffffffffffffffffff16021790555050509392505050565b6103436103ba565b6040805190810160405280600c81526020017f48656c6c6f20576f726c64210000000000000000000000000000000000000000815250905090565b60405161043d806103f483390190565b8154818355818115116103b5578183600052602060002091820191016103b491906103ce565b5b505050565b602060405190810160405280600081525090565b6103f091905b808211156103ec5760008160009055506001016103d4565b5090565b9056006060604052341561000f57600080fd5b60405161043d38038061043d83398101604052808051820191906020018051906020019091908051820191905050826000908051906020019061005392919061007a565b5081600181905550806002908051906020019061007192919061007a565b5050505061011f565b828054600181600116156101000203166002900490600052602060002090601f016020900481019282601f106100bb57805160ff19168380011785556100e9565b828001600101855582156100e9579182015b828111156100e85782518255916020019190600101906100cd565b5b5090506100f691906100fa565b5090565b61011c91905b80821115610118576000816000905550600101610100565b5090565b90565b61030f8061012e6000396000f300606060405260043610610057576000357c0100000000000000000000000000000000000000000000000000000000900463ffffffff16806306fdde031461005c57806318160ddd146100ea5780637284e41614610113575b600080fd5b341561006757600080fd5b61006f6101a1565b6040518080602001828103825283818151815260200191508051906020019080838360005b838110156100af578082015181840152602081019050610094565b50505050905090810190601f1680156100dc5780820380516001836020036101000a031916815260200191505b509250505060405180910390f35b34156100f557600080fd5b6100fd61023f565b6040518082815260200191505060405180910390f35b341561011e57600080fd5b610126610245565b6040518080602001828103825283818151815260200191508051906020019080838360005b8381101561016657808201518184015260208101905061014b565b50505050905090810190601f1680156101935780820380516001836020036101000a031916815260200191505b509250505060405180910390f35b60008054600181600116156101000203166002900480601f0160208091040260200160405190810160405280929190818152602001828054600181600116156101000203166002900480156102375780601f1061020c57610100808354040283529160200191610237565b820191906000526020600020905b81548152906001019060200180831161021a57829003601f168201915b505050505081565b60015481565b60028054600181600116156101000203166002900480601f0160208091040260200160405190810160405280929190818152602001828054600181600116156101000203166002900480156102db5780601f106102b0576101008083540402835291602001916102db565b820191906000526020600020905b8154815290600101906020018083116102be57829003601f168201915b5050505050815600a165627a7a723058207d5fc7437681100b884596e4f5a766b31f9e4e50a08902270c40553c6cc8f41f0029a165627a7a7230582072f91c8b08a3d1426a877f9510e6c667dcd8e7ef7dab1d5cbfa1941e013b49f30029",
  "source": "pragma solidity ^0.4.18;\n\nimport \"./SimpleAsset.sol\";\n\ncontract AssetFactory {\n\n  function hello() public pure returns(string) {\n    return \"Hello World!\";\n  }\n\n  address[] assetContracts;\n\n  function registerSimpleAssetType(string _name, uint _totalSupply, string _description) public returns(address){\n    address newContract = new SimpleAsset(_name, _totalSupply, _description);\n    assetContracts.push(newContract);\n  }\n  \n}\n",
  "sourcePath": "/Users/joaoaguiam/Documents/Joao2017/Dev/Cryptzon/assetbuilder/contracts/AssetFactory.sol",
  "compiler": {
    "name": "solc",
    "version": "0.4.18+commit.9cf6e910.Emscripten.clang"
  },
  "schemaVersion": "1.0.1",
  "updatedAt": "2018-02-03T07:20:20.433Z"
}