{
  "contractName": "SimpleAsset",
  "abi": [
    {
      "constant": true,
      "inputs": [],
      "name": "name",
      "outputs": [
        {
          "name": "",
          "type": "string"
        }
      ],
      "payable": false,
      "stateMutability": "view",
      "type": "function"
    },
    {
      "constant": true,
      "inputs": [],
      "name": "totalSupply",
      "outputs": [
        {
          "name": "",
          "type": "uint256"
        }
      ],
      "payable": false,
      "stateMutability": "view",
      "type": "function"
    },
    {
      "constant": true,
      "inputs": [],
      "name": "description",
      "outputs": [
        {
          "name": "",
          "type": "string"
        }
      ],
      "payable": false,
      "stateMutability": "view",
      "type": "function"
    },
    {
      "inputs": [
        {
          "name": "_name",
          "type": "string"
        },
        {
          "name": "_totalSupply",
          "type": "uint256"
        },
        {
          "name": "_description",
          "type": "string"
        }
      ],
      "payable": false,
      "stateMutability": "nonpayable",
      "type": "constructor"
    }
  ],
  "bytecode": "0x6060604052341561000f57600080fd5b60405161043d38038061043d83398101604052808051820191906020018051906020019091908051820191905050826000908051906020019061005392919061007a565b5081600181905550806002908051906020019061007192919061007a565b5050505061011f565b828054600181600116156101000203166002900490600052602060002090601f016020900481019282601f106100bb57805160ff19168380011785556100e9565b828001600101855582156100e9579182015b828111156100e85782518255916020019190600101906100cd565b5b5090506100f691906100fa565b5090565b61011c91905b80821115610118576000816000905550600101610100565b5090565b90565b61030f8061012e6000396000f300606060405260043610610057576000357c0100000000000000000000000000000000000000000000000000000000900463ffffffff16806306fdde031461005c57806318160ddd146100ea5780637284e41614610113575b600080fd5b341561006757600080fd5b61006f6101a1565b6040518080602001828103825283818151815260200191508051906020019080838360005b838110156100af578082015181840152602081019050610094565b50505050905090810190601f1680156100dc5780820380516001836020036101000a031916815260200191505b509250505060405180910390f35b34156100f557600080fd5b6100fd61023f565b6040518082815260200191505060405180910390f35b341561011e57600080fd5b610126610245565b6040518080602001828103825283818151815260200191508051906020019080838360005b8381101561016657808201518184015260208101905061014b565b50505050905090810190601f1680156101935780820380516001836020036101000a031916815260200191505b509250505060405180910390f35b60008054600181600116156101000203166002900480601f0160208091040260200160405190810160405280929190818152602001828054600181600116156101000203166002900480156102375780601f1061020c57610100808354040283529160200191610237565b820191906000526020600020905b81548152906001019060200180831161021a57829003601f168201915b505050505081565b60015481565b60028054600181600116156101000203166002900480601f0160208091040260200160405190810160405280929190818152602001828054600181600116156101000203166002900480156102db5780601f106102b0576101008083540402835291602001916102db565b820191906000526020600020905b8154815290600101906020018083116102be57829003601f168201915b5050505050815600a165627a7a723058207d5fc7437681100b884596e4f5a766b31f9e4e50a08902270c40553c6cc8f41f0029",
  "source": "pragma solidity ^0.4.18;\n\ncontract SimpleAsset {\n\n  string public name;\n  uint public totalSupply;\n  string public description;\n\n  function SimpleAsset(string _name, uint _totalSupply, string _description) public {\n    name = _name;\n    totalSupply = _totalSupply;\n    description = _description;\n  }\n}\n",
  "sourcePath": "/Users/joaoaguiam/Documents/Joao2017/Dev/Cryptzon/assetbuilder/contracts/SimpleAsset.sol",
  "compiler": {
    "name": "solc",
    "version": "0.4.18+commit.9cf6e910.Emscripten.clang"
  },
  "schemaVersion": "1.0.1",
  "updatedAt": "2018-02-03T07:20:20.433Z"
}